{
  "contractName": "Social",
  "abi": [
    {
      "constant": false,
      "inputs": [
        {
          "name": "spender",
          "type": "address"
        },
        {
          "name": "value",
          "type": "uint256"
        }
      ],
      "name": "approve",
      "outputs": [
        {
          "name": "",
          "type": "bool"
        }
      ],
      "payable": false,
      "stateMutability": "nonpayable",
      "type": "function"
    },
    {
      "constant": true,
      "inputs": [],
      "name": "totalSupply",
      "outputs": [
        {
          "name": "",
          "type": "uint256"
        }
      ],
      "payable": false,
      "stateMutability": "view",
      "type": "function"
    },
    {
      "constant": false,
      "inputs": [
        {
          "name": "sender",
          "type": "address"
        },
        {
          "name": "recipient",
          "type": "address"
        },
        {
          "name": "amount",
          "type": "uint256"
        }
      ],
      "name": "transferFrom",
      "outputs": [
        {
          "name": "",
          "type": "bool"
        }
      ],
      "payable": false,
      "stateMutability": "nonpayable",
      "type": "function"
    },
    {
      "constant": false,
      "inputs": [
        {
          "name": "spender",
          "type": "address"
        },
        {
          "name": "addedValue",
          "type": "uint256"
        }
      ],
      "name": "increaseAllowance",
      "outputs": [
        {
          "name": "",
          "type": "bool"
        }
      ],
      "payable": false,
      "stateMutability": "nonpayable",
      "type": "function"
    },
    {
      "constant": false,
      "inputs": [],
      "name": "unpause",
      "outputs": [],
      "payable": false,
      "stateMutability": "nonpayable",
      "type": "function"
    },
    {
      "constant": true,
      "inputs": [],
      "name": "paused",
      "outputs": [
        {
          "name": "",
          "type": "bool"
        }
      ],
      "payable": false,
      "stateMutability": "view",
      "type": "function"
    },
    {
      "constant": true,
      "inputs": [
        {
          "name": "account",
          "type": "address"
        }
      ],
      "name": "balanceOf",
      "outputs": [
        {
          "name": "",
          "type": "uint256"
        }
      ],
      "payable": false,
      "stateMutability": "view",
      "type": "function"
    },
    {
      "constant": false,
      "inputs": [],
      "name": "renounceOwnership",
      "outputs": [],
      "payable": false,
      "stateMutability": "nonpayable",
      "type": "function"
    },
    {
      "constant": true,
      "inputs": [],
      "name": "voluntaryGasAdvance",
      "outputs": [
        {
          "name": "",
          "type": "uint256"
        }
      ],
      "payable": false,
      "stateMutability": "view",
      "type": "function"
    },
    {
      "constant": true,
      "inputs": [],
      "name": "tokenPrice",
      "outputs": [
        {
          "name": "",
          "type": "uint256"
        }
      ],
      "payable": false,
      "stateMutability": "view",
      "type": "function"
    },
    {
      "constant": false,
      "inputs": [],
      "name": "pause",
      "outputs": [],
      "payable": false,
      "stateMutability": "nonpayable",
      "type": "function"
    },
    {
      "constant": true,
      "inputs": [
        {
          "name": "account",
          "type": "address"
        }
      ],
      "name": "getHomelessMap",
      "outputs": [
        {
          "name": "",
          "type": "bool"
        }
      ],
      "payable": false,
      "stateMutability": "view",
      "type": "function"
    },
    {
      "constant": true,
      "inputs": [],
      "name": "owner",
      "outputs": [
        {
          "name": "",
          "type": "address"
        }
      ],
      "payable": false,
      "stateMutability": "view",
      "type": "function"
    },
    {
      "constant": true,
      "inputs": [],
      "name": "isOwner",
      "outputs": [
        {
          "name": "",
          "type": "bool"
        }
      ],
      "payable": false,
      "stateMutability": "view",
      "type": "function"
    },
    {
      "constant": false,
      "inputs": [
        {
          "name": "spender",
          "type": "address"
        },
        {
          "name": "subtractedValue",
          "type": "uint256"
        }
      ],
      "name": "decreaseAllowance",
      "outputs": [
        {
          "name": "",
          "type": "bool"
        }
      ],
      "payable": false,
      "stateMutability": "nonpayable",
      "type": "function"
    },
    {
      "constant": false,
      "inputs": [
        {
          "name": "recipient",
          "type": "address"
        },
        {
          "name": "amount",
          "type": "uint256"
        }
      ],
      "name": "transfer",
      "outputs": [
        {
          "name": "",
          "type": "bool"
        }
      ],
      "payable": false,
      "stateMutability": "nonpayable",
      "type": "function"
    },
    {
      "constant": false,
      "inputs": [
        {
          "name": "sender",
          "type": "address"
        }
      ],
      "name": "initializePausable",
      "outputs": [],
      "payable": false,
      "stateMutability": "nonpayable",
      "type": "function"
    },
    {
      "constant": false,
      "inputs": [
        {
          "name": "sender",
          "type": "address"
        }
      ],
      "name": "initializeOwnable",
      "outputs": [],
      "payable": false,
      "stateMutability": "nonpayable",
      "type": "function"
    },
    {
      "constant": true,
      "inputs": [
        {
          "name": "owner",
          "type": "address"
        },
        {
          "name": "spender",
          "type": "address"
        }
      ],
      "name": "allowance",
      "outputs": [
        {
          "name": "",
          "type": "uint256"
        }
      ],
      "payable": false,
      "stateMutability": "view",
      "type": "function"
    },
    {
      "constant": false,
      "inputs": [
        {
          "name": "newOwner",
          "type": "address"
        }
      ],
      "name": "transferOwnership",
      "outputs": [],
      "payable": false,
      "stateMutability": "nonpayable",
      "type": "function"
    },
    {
      "payable": false,
      "stateMutability": "nonpayable",
      "type": "fallback"
    },
    {
      "anonymous": false,
      "inputs": [
        {
          "indexed": false,
          "name": "account",
          "type": "address"
        }
      ],
      "name": "Paused",
      "type": "event"
    },
    {
      "anonymous": false,
      "inputs": [
        {
          "indexed": false,
          "name": "account",
          "type": "address"
        }
      ],
      "name": "Unpaused",
      "type": "event"
    },
    {
      "anonymous": false,
      "inputs": [
        {
          "indexed": true,
          "name": "previousOwner",
          "type": "address"
        },
        {
          "indexed": true,
          "name": "newOwner",
          "type": "address"
        }
      ],
      "name": "OwnershipTransferred",
      "type": "event"
    },
    {
      "anonymous": false,
      "inputs": [
        {
          "indexed": true,
          "name": "from",
          "type": "address"
        },
        {
          "indexed": true,
          "name": "to",
          "type": "address"
        },
        {
          "indexed": false,
          "name": "value",
          "type": "uint256"
        }
      ],
      "name": "Transfer",
      "type": "event"
    },
    {
      "anonymous": false,
      "inputs": [
        {
          "indexed": true,
          "name": "owner",
          "type": "address"
        },
        {
          "indexed": true,
          "name": "spender",
          "type": "address"
        },
        {
          "indexed": false,
          "name": "value",
          "type": "uint256"
        }
      ],
      "name": "Approval",
      "type": "event"
    },
    {
      "constant": false,
      "inputs": [],
      "name": "initialize",
      "outputs": [],
      "payable": false,
      "stateMutability": "nonpayable",
      "type": "function"
    },
    {
      "constant": false,
      "inputs": [
        {
          "name": "amount",
          "type": "uint256"
        }
      ],
      "name": "buyToken",
      "outputs": [],
      "payable": true,
      "stateMutability": "payable",
      "type": "function"
    },
    {
      "constant": false,
      "inputs": [
        {
          "name": "amount",
          "type": "uint256"
        },
        {
          "name": "receiverAddress",
          "type": "string"
        }
      ],
      "name": "donateToken",
      "outputs": [],
      "payable": false,
      "stateMutability": "nonpayable",
      "type": "function"
    },
    {
      "constant": false,
      "inputs": [
        {
          "name": "amount",
          "type": "uint256"
        },
        {
          "name": "receiverAddress",
          "type": "string"
        }
      ],
      "name": "spendToken",
      "outputs": [],
      "payable": false,
      "stateMutability": "nonpayable",
      "type": "function"
    },
    {
      "constant": false,
      "inputs": [
        {
          "name": "amount",
          "type": "uint256"
        }
      ],
      "name": "withdraw",
      "outputs": [],
      "payable": false,
      "stateMutability": "nonpayable",
      "type": "function"
    },
    {
      "constant": false,
      "inputs": [
        {
          "name": "vendorAddress",
          "type": "address"
        }
      ],
      "name": "registerVendor",
      "outputs": [],
      "payable": false,
      "stateMutability": "nonpayable",
      "type": "function"
    },
    {
      "constant": false,
      "inputs": [
        {
          "name": "vendorAddress",
          "type": "address"
        }
      ],
      "name": "deleteVendor",
      "outputs": [],
      "payable": false,
      "stateMutability": "nonpayable",
      "type": "function"
    }
  ],
  "bytecode": "0x60806040526136b5806100136000396000f3fe60806040526004361061019c5760003560e01c80638456cb59116100ec578063a6c6e7cf1161008a578063b21f2d3b11610064578063b21f2d3b14610895578063c9a6964a146108e6578063dd62ed3e14610937578063f2fde38b146109bc5761019c565b8063a6c6e7cf14610780578063a6fea6f4146107d1578063a9059cbb146108225761019c565b80638adb5f2c116100c65780638adb5f2c146105f75780638da5cb5b146106875780638f32d59b146106de578063a457c2d71461070d5761019c565b80638456cb59146104e757806389e610dc146104fe5780638ada2a52146105675761019c565b80633f4ba83a11610159578063715018a611610133578063715018a61461046357806376bd971f1461047a5780637ff9b596146104a55780638129fc1c146104d05761019c565b80633f4ba83a146103b85780635c975abb146103cf57806370a08231146103fe5761019c565b8063095ea7b3146101ab57806318160ddd1461021e57806323b872dd146102495780632d296bf1146102dc5780632e1a7d4d1461030a5780633950935114610345575b3480156101a857600080fd5b50005b3480156101b757600080fd5b50610204600480360360408110156101ce57600080fd5b81019080803573ffffffffffffffffffffffffffffffffffffffff16906020019092919080359060200190929190505050610a0d565b604051808215151515815260200191505060405180910390f35b34801561022a57600080fd5b50610233610a2b565b6040518082815260200191505060405180910390f35b34801561025557600080fd5b506102c26004803603606081101561026c57600080fd5b81019080803573ffffffffffffffffffffffffffffffffffffffff169060200190929190803573ffffffffffffffffffffffffffffffffffffffff16906020019092919080359060200190929190505050610a35565b604051808215151515815260200191505060405180910390f35b610308600480360360208110156102f257600080fd5b8101908080359060200190929190505050610c84565b005b34801561031657600080fd5b506103436004803603602081101561032d57600080fd5b8101908080359060200190929190505050610db9565b005b34801561035157600080fd5b5061039e6004803603604081101561036857600080fd5b81019080803573ffffffffffffffffffffffffffffffffffffffff16906020019092919080359060200190929190505050610feb565b604051808215151515815260200191505060405180910390f35b3480156103c457600080fd5b506103cd61109e565b005b3480156103db57600080fd5b506103e4611221565b604051808215151515815260200191505060405180910390f35b34801561040a57600080fd5b5061044d6004803603602081101561042157600080fd5b81019080803573ffffffffffffffffffffffffffffffffffffffff169060200190929190505050611238565b6040518082815260200191505060405180910390f35b34801561046f57600080fd5b50610478611281565b005b34801561048657600080fd5b5061048f6113bc565b6040518082815260200191505060405180910390f35b3480156104b157600080fd5b506104ba6113c2565b6040518082815260200191505060405180910390f35b3480156104dc57600080fd5b506104e56113c8565b005b3480156104f357600080fd5b506104fc611634565b005b34801561050a57600080fd5b5061054d6004803603602081101561052157600080fd5b81019080803573ffffffffffffffffffffffffffffffffffffffff1690602001909291905050506117b8565b604051808215151515815260200191505060405180910390f35b34801561057357600080fd5b506105f56004803603604081101561058a57600080fd5b8101908080359060200190929190803590602001906401000000008111156105b157600080fd5b8201836020820111156105c357600080fd5b803590602001918460018302840111640100000000831117156105e557600080fd5b909192939192939050505061180e565b005b34801561060357600080fd5b506106856004803603604081101561061a57600080fd5b81019080803590602001909291908035906020019064010000000081111561064157600080fd5b82018360208201111561065357600080fd5b8035906020019184600183028401116401000000008311171561067557600080fd5b9091929391929390505050611a82565b005b34801561069357600080fd5b5061069c611c82565b604051808273ffffffffffffffffffffffffffffffffffffffff1673ffffffffffffffffffffffffffffffffffffffff16815260200191505060405180910390f35b3480156106ea57600080fd5b506106f3611cac565b604051808215151515815260200191505060405180910390f35b34801561071957600080fd5b506107666004803603604081101561073057600080fd5b81019080803573ffffffffffffffffffffffffffffffffffffffff16906020019092919080359060200190929190505050611d0b565b604051808215151515815260200191505060405180910390f35b34801561078c57600080fd5b506107cf600480360360208110156107a357600080fd5b81019080803573ffffffffffffffffffffffffffffffffffffffff169060200190929190505050611dbe565b005b3480156107dd57600080fd5b50610820600480360360208110156107f457600080fd5b81019080803573ffffffffffffffffffffffffffffffffffffffff169060200190929190505050611f16565b005b34801561082e57600080fd5b5061087b6004803603604081101561084557600080fd5b81019080803573ffffffffffffffffffffffffffffffffffffffff1690602001909291908035906020019092919050505061206e565b604051808215151515815260200191505060405180910390f35b3480156108a157600080fd5b506108e4600480360360208110156108b857600080fd5b81019080803573ffffffffffffffffffffffffffffffffffffffff169060200190929190505050612223565b005b3480156108f257600080fd5b506109356004803603602081101561090957600080fd5b81019080803573ffffffffffffffffffffffffffffffffffffffff169060200190929190505050612347565b005b34801561094357600080fd5b506109a66004803603604081101561095a57600080fd5b81019080803573ffffffffffffffffffffffffffffffffffffffff169060200190929190803573ffffffffffffffffffffffffffffffffffffffff169060200190929190505050612505565b6040518082815260200191505060405180910390f35b3480156109c857600080fd5b50610a0b600480360360208110156109df57600080fd5b81019080803573ffffffffffffffffffffffffffffffffffffffff16906020019092919050505061258c565b005b6000610a21610a1a612612565b848461261a565b6001905092915050565b6000603654905090565b60008360001515603560008373ffffffffffffffffffffffffffffffffffffffff1673ffffffffffffffffffffffffffffffffffffffff16815260200190815260200160002060009054906101000a900460ff16151514610afe576040517f08c379a00000000000000000000000000000000000000000000000000000000081526004018080602001828103825260148152602001807f43616c6c6572206973206120686f6d656c65737300000000000000000000000081525060200191505060405180910390fd5b8360001515603560008373ffffffffffffffffffffffffffffffffffffffff1673ffffffffffffffffffffffffffffffffffffffff16815260200190815260200160002060009054906101000a900460ff16151514610bc5576040517f08c379a00000000000000000000000000000000000000000000000000000000081526004018080602001828103825260148152602001807f43616c6c6572206973206120686f6d656c65737300000000000000000000000081525060200191505060405180910390fd5b610bd0868686612811565b610c7786610bdc612612565b610c7287603460008c73ffffffffffffffffffffffffffffffffffffffff1673ffffffffffffffffffffffffffffffffffffffff1681526020019081526020016000206000610c29612612565b73ffffffffffffffffffffffffffffffffffffffff1673ffffffffffffffffffffffffffffffffffffffff16815260200190815260200160002054612ab190919063ffffffff16565b61261a565b6001925050509392505050565b609c60009054906101000a900460ff1615610d07576040517f08c379a00000000000000000000000000000000000000000000000000000000081526004018080602001828103825260108152602001807f5061757361626c653a207061757365640000000000000000000000000000000081525060200191505060405180910390fd5b610d30610d2160d05460cf54612b3a90919063ffffffff16565b82612bc290919063ffffffff16565b341015610da5576040517f08c379a00000000000000000000000000000000000000000000000000000000081526004018080602001828103825260158152602001807f4e6f7420656e6f7567682066756e64732073656e74000000000000000000000081525060200191505060405180910390fd5b610db6610db0612612565b82612c48565b50565b610dc1612612565b6001151560d160008373ffffffffffffffffffffffffffffffffffffffff1673ffffffffffffffffffffffffffffffffffffffff16815260200190815260200160002060009054906101000a900460ff16151514610e87576040517f08c379a00000000000000000000000000000000000000000000000000000000081526004018080602001828103825260168152602001807f43616c6c6572206973206e6f7420612076656e646f720000000000000000000081525060200191505060405180910390fd5b609c60009054906101000a900460ff1615610f0a576040517f08c379a00000000000000000000000000000000000000000000000000000000081526004018080602001828103825260108152602001807f5061757361626c653a207061757365640000000000000000000000000000000081525060200191505060405180910390fd5b610f1f8260cf54612bc290919063ffffffff16565b3073ffffffffffffffffffffffffffffffffffffffff16311015610fab576040517f08c379a000000000000000000000000000000000000000000000000000000000815260040180806020018281038252601a8152602001807f4e6f7420656e6f7567682066756e647320617661696c61626c6500000000000081525060200191505060405180910390fd5b610fbc610fb6612612565b83612e05565b6000610fc6612612565b9050610fe681610fe18560cf54612bc290919063ffffffff16565b612fa5565b505050565b6000611094610ff8612612565b8461108f8560346000611009612612565b73ffffffffffffffffffffffffffffffffffffffff1673ffffffffffffffffffffffffffffffffffffffff16815260200190815260200160002060008973ffffffffffffffffffffffffffffffffffffffff1673ffffffffffffffffffffffffffffffffffffffff16815260200190815260200160002054612b3a90919063ffffffff16565b61261a565b6001905092915050565b6110a6611cac565b611118576040517f08c379a00000000000000000000000000000000000000000000000000000000081526004018080602001828103825260208152602001807f4f776e61626c653a2063616c6c6572206973206e6f7420746865206f776e657281525060200191505060405180910390fd5b609c60009054906101000a900460ff1661119a576040517f08c379a00000000000000000000000000000000000000000000000000000000081526004018080602001828103825260148152602001807f5061757361626c653a206e6f742070617573656400000000000000000000000081525060200191505060405180910390fd5b6000609c60006101000a81548160ff0219169083151502179055507f5db9ee0a495bf2e6ff9c91a7834c1ba4fdd244a5e8aa4e537bd38aeae4b073aa6111de612612565b604051808273ffffffffffffffffffffffffffffffffffffffff1673ffffffffffffffffffffffffffffffffffffffff16815260200191505060405180910390a1565b6000609c60009054906101000a900460ff16905090565b6000603360008373ffffffffffffffffffffffffffffffffffffffff1673ffffffffffffffffffffffffffffffffffffffff168152602001908152602001600020549050919050565b611289611cac565b6112fb576040517f08c379a00000000000000000000000000000000000000000000000000000000081526004018080602001828103825260208152602001807f4f776e61626c653a2063616c6c6572206973206e6f7420746865206f776e657281525060200191505060405180910390fd5b600073ffffffffffffffffffffffffffffffffffffffff16606960009054906101000a900473ffffffffffffffffffffffffffffffffffffffff1673ffffffffffffffffffffffffffffffffffffffff167f8be0079c531659141344cd1fd0a4f28419497f9722a3daafe3b4186f6b6457e060405160405180910390a36000606960006101000a81548173ffffffffffffffffffffffffffffffffffffffff021916908373ffffffffffffffffffffffffffffffffffffffff160217905550565b60d05481565b60cf5481565b600060019054906101000a900460ff16806113e757506113e66130f6565b5b806113fe57506000809054906101000a900460ff16155b611453576040517f08c379a000000000000000000000000000000000000000000000000000000000815260040180806020018281038252602e8152602001806135f2602e913960400191505060405180910390fd5b60008060019054906101000a900460ff1615905080156114a3576001600060016101000a81548160ff02191690831515021790555060016000806101000a81548160ff0219169083151502179055505b6114b36114ae612612565b612223565b600160d160007396c65a2b5ef50bc13f227a1f3c285e5045a4664b73ffffffffffffffffffffffffffffffffffffffff1673ffffffffffffffffffffffffffffffffffffffff16815260200190815260200160002060006101000a81548160ff021916908315150217905550600160d16000739ea5cb0a3162a50bf5cdd694451a21b557b1967d73ffffffffffffffffffffffffffffffffffffffff1673ffffffffffffffffffffffffffffffffffffffff16815260200190815260200160002060006101000a81548160ff021916908315150217905550600160d160007330dff58c12349297fea380a95b59211367de8e7273ffffffffffffffffffffffffffffffffffffffff1673ffffffffffffffffffffffffffffffffffffffff16815260200190815260200160002060006101000a81548160ff021916908315150217905550650574fbde600060cf81905550642e90edd00060d08190555080156116315760008060016101000a81548160ff0219169083151502179055505b50565b61163c611cac565b6116ae576040517f08c379a00000000000000000000000000000000000000000000000000000000081526004018080602001828103825260208152602001807f4f776e61626c653a2063616c6c6572206973206e6f7420746865206f776e657281525060200191505060405180910390fd5b609c60009054906101000a900460ff1615611731576040517f08c379a00000000000000000000000000000000000000000000000000000000081526004018080602001828103825260108152602001807f5061757361626c653a207061757365640000000000000000000000000000000081525060200191505060405180910390fd5b6001609c60006101000a81548160ff0219169083151502179055507f62e78cea01bee320cd4e420270b5ea74000d11b0c9f74754ebdbfc544b05a258611775612612565b604051808273ffffffffffffffffffffffffffffffffffffffff1673ffffffffffffffffffffffffffffffffffffffff16815260200191505060405180910390a1565b6000603560008373ffffffffffffffffffffffffffffffffffffffff1673ffffffffffffffffffffffffffffffffffffffff16815260200190815260200160002060009054906101000a900460ff169050919050565b609c60009054906101000a900460ff1615611891576040517f08c379a00000000000000000000000000000000000000000000000000000000081526004018080602001828103825260108152602001807f5061757361626c653a207061757365640000000000000000000000000000000081525060200191505060405180910390fd5b611899612612565b60001515603560008373ffffffffffffffffffffffffffffffffffffffff1673ffffffffffffffffffffffffffffffffffffffff16815260200190815260200160002060009054906101000a900460ff1615151461195f576040517f08c379a00000000000000000000000000000000000000000000000000000000081526004018080602001828103825260148152602001807f43616c6c6572206973206120686f6d656c65737300000000000000000000000081525060200191505060405180910390fd5b60006119ae84848080601f016020809104026020016040519081016040528093929190818152602001838380828437600081840152601f19601f82011690508083019250505050505050613107565b90508073ffffffffffffffffffffffffffffffffffffffff166119cf612612565b73ffffffffffffffffffffffffffffffffffffffff161415611a3c576040517f08c379a000000000000000000000000000000000000000000000000000000000815260040180806020018281038252602a8152602001806135a7602a913960400191505060405180910390fd5b611a4581613360565b611a57611a50612612565b8287612811565b6000819050611a7a81611a758860d054612bc290919063ffffffff16565b612fa5565b505050505050565b611acf82828080601f016020809104026020016040519081016040528093929190818152602001838380828437600081840152601f19601f82011690508083019250505050505050613107565b6001151560d160008373ffffffffffffffffffffffffffffffffffffffff1673ffffffffffffffffffffffffffffffffffffffff16815260200190815260200160002060009054906101000a900460ff16151514611b95576040517f08c379a00000000000000000000000000000000000000000000000000000000081526004018080602001828103825260168152602001807f43616c6c6572206973206e6f7420612076656e646f720000000000000000000081525060200191505060405180910390fd5b609c60009054906101000a900460ff1615611c18576040517f08c379a00000000000000000000000000000000000000000000000000000000081526004018080602001828103825260108152602001807f5061757361626c653a207061757365640000000000000000000000000000000081525060200191505060405180910390fd5b6000611c6784848080601f016020809104026020016040519081016040528093929190818152602001838380828437600081840152601f19601f82011690508083019250505050505050613107565b9050611c7b611c74612612565b8287612811565b5050505050565b6000606960009054906101000a900473ffffffffffffffffffffffffffffffffffffffff16905090565b6000606960009054906101000a900473ffffffffffffffffffffffffffffffffffffffff1673ffffffffffffffffffffffffffffffffffffffff16611cef612612565b73ffffffffffffffffffffffffffffffffffffffff1614905090565b6000611db4611d18612612565b84611daf8560346000611d29612612565b73ffffffffffffffffffffffffffffffffffffffff1673ffffffffffffffffffffffffffffffffffffffff16815260200190815260200160002060008973ffffffffffffffffffffffffffffffffffffffff1673ffffffffffffffffffffffffffffffffffffffff16815260200190815260200160002054612ab190919063ffffffff16565b61261a565b6001905092915050565b611dc6611cac565b611e38576040517f08c379a00000000000000000000000000000000000000000000000000000000081526004018080602001828103825260208152602001807f4f776e61626c653a2063616c6c6572206973206e6f7420746865206f776e657281525060200191505060405180910390fd5b609c60009054906101000a900460ff1615611ebb576040517f08c379a00000000000000000000000000000000000000000000000000000000081526004018080602001828103825260108152602001807f5061757361626c653a207061757365640000000000000000000000000000000081525060200191505060405180910390fd5b600060d160008373ffffffffffffffffffffffffffffffffffffffff1673ffffffffffffffffffffffffffffffffffffffff16815260200190815260200160002060006101000a81548160ff02191690831515021790555050565b611f1e611cac565b611f90576040517f08c379a00000000000000000000000000000000000000000000000000000000081526004018080602001828103825260208152602001807f4f776e61626c653a2063616c6c6572206973206e6f7420746865206f776e657281525060200191505060405180910390fd5b609c60009054906101000a900460ff1615612013576040517f08c379a00000000000000000000000000000000000000000000000000000000081526004018080602001828103825260108152602001807f5061757361626c653a207061757365640000000000000000000000000000000081525060200191505060405180910390fd5b600160d160008373ffffffffffffffffffffffffffffffffffffffff1673ffffffffffffffffffffffffffffffffffffffff16815260200190815260200160002060006101000a81548160ff02191690831515021790555050565b6000612078612612565b60001515603560008373ffffffffffffffffffffffffffffffffffffffff1673ffffffffffffffffffffffffffffffffffffffff16815260200190815260200160002060009054906101000a900460ff1615151461213e576040517f08c379a00000000000000000000000000000000000000000000000000000000081526004018080602001828103825260148152602001807f43616c6c6572206973206120686f6d656c65737300000000000000000000000081525060200191505060405180910390fd5b8360001515603560008373ffffffffffffffffffffffffffffffffffffffff1673ffffffffffffffffffffffffffffffffffffffff16815260200190815260200160002060009054906101000a900460ff16151514612205576040517f08c379a00000000000000000000000000000000000000000000000000000000081526004018080602001828103825260148152602001807f43616c6c6572206973206120686f6d656c65737300000000000000000000000081525060200191505060405180910390fd5b612217612210612612565b8686612811565b60019250505092915050565b600060019054906101000a900460ff168061224257506122416130f6565b5b8061225957506000809054906101000a900460ff16155b6122ae576040517f08c379a000000000000000000000000000000000000000000000000000000000815260040180806020018281038252602e8152602001806135f2602e913960400191505060405180910390fd5b60008060019054906101000a900460ff1615905080156122fe576001600060016101000a81548160ff02191690831515021790555060016000806101000a81548160ff0219169083151502179055505b61230782612347565b6000609c60006101000a81548160ff02191690831515021790555080156123435760008060016101000a81548160ff0219169083151502179055505b5050565b600060019054906101000a900460ff168061236657506123656130f6565b5b8061237d57506000809054906101000a900460ff16155b6123d2576040517f08c379a000000000000000000000000000000000000000000000000000000000815260040180806020018281038252602e8152602001806135f2602e913960400191505060405180910390fd5b60008060019054906101000a900460ff161590508015612422576001600060016101000a81548160ff02191690831515021790555060016000806101000a81548160ff0219169083151502179055505b81606960006101000a81548173ffffffffffffffffffffffffffffffffffffffff021916908373ffffffffffffffffffffffffffffffffffffffff160217905550606960009054906101000a900473ffffffffffffffffffffffffffffffffffffffff1673ffffffffffffffffffffffffffffffffffffffff16600073ffffffffffffffffffffffffffffffffffffffff167f8be0079c531659141344cd1fd0a4f28419497f9722a3daafe3b4186f6b6457e060405160405180910390a380156125015760008060016101000a81548160ff0219169083151502179055505b5050565b6000603460008473ffffffffffffffffffffffffffffffffffffffff1673ffffffffffffffffffffffffffffffffffffffff16815260200190815260200160002060008373ffffffffffffffffffffffffffffffffffffffff1673ffffffffffffffffffffffffffffffffffffffff16815260200190815260200160002054905092915050565b612594611cac565b612606576040517f08c379a00000000000000000000000000000000000000000000000000000000081526004018080602001828103825260208152602001807f4f776e61626c653a2063616c6c6572206973206e6f7420746865206f776e657281525060200191505060405180910390fd5b61260f816133bb565b50565b600033905090565b600073ffffffffffffffffffffffffffffffffffffffff168373ffffffffffffffffffffffffffffffffffffffff1614156126a0576040517f08c379a00000000000000000000000000000000000000000000000000000000081526004018080602001828103825260248152602001806136666024913960400191505060405180910390fd5b600073ffffffffffffffffffffffffffffffffffffffff168273ffffffffffffffffffffffffffffffffffffffff161415612726576040517f08c379a000000000000000000000000000000000000000000000000000000000815260040180806020018281038252602281526020018061354b6022913960400191505060405180910390fd5b80603460008573ffffffffffffffffffffffffffffffffffffffff1673ffffffffffffffffffffffffffffffffffffffff16815260200190815260200160002060008473ffffffffffffffffffffffffffffffffffffffff1673ffffffffffffffffffffffffffffffffffffffff168152602001908152602001600020819055508173ffffffffffffffffffffffffffffffffffffffff168373ffffffffffffffffffffffffffffffffffffffff167f8c5be1e5ebec7d5bd14f71427d1e84f3dd0314c0f7b2291e5b200ac8c7c3b925836040518082815260200191505060405180910390a3505050565b600073ffffffffffffffffffffffffffffffffffffffff168373ffffffffffffffffffffffffffffffffffffffff161415612897576040517f08c379a00000000000000000000000000000000000000000000000000000000081526004018080602001828103825260258152602001806136416025913960400191505060405180910390fd5b600073ffffffffffffffffffffffffffffffffffffffff168273ffffffffffffffffffffffffffffffffffffffff16141561291d576040517f08c379a00000000000000000000000000000000000000000000000000000000081526004018080602001828103825260238152602001806135026023913960400191505060405180910390fd5b61296f81603360008673ffffffffffffffffffffffffffffffffffffffff1673ffffffffffffffffffffffffffffffffffffffff16815260200190815260200160002054612ab190919063ffffffff16565b603360008573ffffffffffffffffffffffffffffffffffffffff1673ffffffffffffffffffffffffffffffffffffffff16815260200190815260200160002081905550612a0481603360008573ffffffffffffffffffffffffffffffffffffffff1673ffffffffffffffffffffffffffffffffffffffff16815260200190815260200160002054612b3a90919063ffffffff16565b603360008473ffffffffffffffffffffffffffffffffffffffff1673ffffffffffffffffffffffffffffffffffffffff168152602001908152602001600020819055508173ffffffffffffffffffffffffffffffffffffffff168373ffffffffffffffffffffffffffffffffffffffff167fddf252ad1be2c89b69c2b068fc378daa952ba7f163c4a11628f55a4df523b3ef836040518082815260200191505060405180910390a3505050565b600082821115612b29576040517f08c379a000000000000000000000000000000000000000000000000000000000815260040180806020018281038252601e8152602001807f536166654d6174683a207375627472616374696f6e206f766572666c6f77000081525060200191505060405180910390fd5b600082840390508091505092915050565b600080828401905083811015612bb8576040517f08c379a000000000000000000000000000000000000000000000000000000000815260040180806020018281038252601b8152602001807f536166654d6174683a206164646974696f6e206f766572666c6f77000000000081525060200191505060405180910390fd5b8091505092915050565b600080831415612bd55760009050612c42565b6000828402905082848281612be657fe5b0414612c3d576040517f08c379a00000000000000000000000000000000000000000000000000000000081526004018080602001828103825260218152602001806135d16021913960400191505060405180910390fd5b809150505b92915050565b600073ffffffffffffffffffffffffffffffffffffffff168273ffffffffffffffffffffffffffffffffffffffff161415612ceb576040517f08c379a000000000000000000000000000000000000000000000000000000000815260040180806020018281038252601f8152602001807f45524332303a206d696e7420746f20746865207a65726f20616464726573730081525060200191505060405180910390fd5b612d0081603654612b3a90919063ffffffff16565b603681905550612d5881603360008573ffffffffffffffffffffffffffffffffffffffff1673ffffffffffffffffffffffffffffffffffffffff16815260200190815260200160002054612b3a90919063ffffffff16565b603360008473ffffffffffffffffffffffffffffffffffffffff1673ffffffffffffffffffffffffffffffffffffffff168152602001908152602001600020819055508173ffffffffffffffffffffffffffffffffffffffff16600073ffffffffffffffffffffffffffffffffffffffff167fddf252ad1be2c89b69c2b068fc378daa952ba7f163c4a11628f55a4df523b3ef836040518082815260200191505060405180910390a35050565b600073ffffffffffffffffffffffffffffffffffffffff168273ffffffffffffffffffffffffffffffffffffffff161415612e8b576040517f08c379a00000000000000000000000000000000000000000000000000000000081526004018080602001828103825260218152602001806136206021913960400191505060405180910390fd5b612ea081603654612ab190919063ffffffff16565b603681905550612ef881603360008573ffffffffffffffffffffffffffffffffffffffff1673ffffffffffffffffffffffffffffffffffffffff16815260200190815260200160002054612ab190919063ffffffff16565b603360008473ffffffffffffffffffffffffffffffffffffffff1673ffffffffffffffffffffffffffffffffffffffff16815260200190815260200160002081905550600073ffffffffffffffffffffffffffffffffffffffff168273ffffffffffffffffffffffffffffffffffffffff167fddf252ad1be2c89b69c2b068fc378daa952ba7f163c4a11628f55a4df523b3ef836040518082815260200191505060405180910390a35050565b803073ffffffffffffffffffffffffffffffffffffffff16311015613032576040517f08c379a000000000000000000000000000000000000000000000000000000000815260040180806020018281038252601d8152602001807f416464726573733a20696e73756666696369656e742062616c616e636500000081525060200191505060405180910390fd5b60008273ffffffffffffffffffffffffffffffffffffffff168260405180600001905060006040518083038185875af1925050503d8060008114613092576040519150601f19603f3d011682016040523d82523d6000602084013e613097565b606091505b50509050806130f1576040517f08c379a000000000000000000000000000000000000000000000000000000000815260040180806020018281038252603a81526020018061356d603a913960400191505060405180910390fd5b505050565b600080303b90506000811491505090565b6000606082905060008090506000806000600290505b602a811015613353576101008402935084818151811061313957fe5b602001015160f81c60f81b60f81c60ff16925084600182018151811061315b57fe5b602001015160f81c60f81b60f81c60ff16915060618373ffffffffffffffffffffffffffffffffffffffff16101580156131ac575060668373ffffffffffffffffffffffffffffffffffffffff1611155b156131bc57605783039250613256565b60418373ffffffffffffffffffffffffffffffffffffffff16101580156131fa575060468373ffffffffffffffffffffffffffffffffffffffff1611155b1561320a57603783039250613255565b60308373ffffffffffffffffffffffffffffffffffffffff1610158015613248575060398373ffffffffffffffffffffffffffffffffffffffff1611155b15613254576030830392505b5b5b60618273ffffffffffffffffffffffffffffffffffffffff1610158015613294575060668273ffffffffffffffffffffffffffffffffffffffff1611155b156132a45760578203915061333e565b60418273ffffffffffffffffffffffffffffffffffffffff16101580156132e2575060468273ffffffffffffffffffffffffffffffffffffffff1611155b156132f25760378203915061333d565b60308273ffffffffffffffffffffffffffffffffffffffff1610158015613330575060398273ffffffffffffffffffffffffffffffffffffffff1611155b1561333c576030820391505b5b5b8160108402018401935060028101905061311d565b5082945050505050919050565b6001603560008373ffffffffffffffffffffffffffffffffffffffff1673ffffffffffffffffffffffffffffffffffffffff16815260200190815260200160002060006101000a81548160ff02191690831515021790555050565b600073ffffffffffffffffffffffffffffffffffffffff168173ffffffffffffffffffffffffffffffffffffffff161415613441576040517f08c379a00000000000000000000000000000000000000000000000000000000081526004018080602001828103825260268152602001806135256026913960400191505060405180910390fd5b8073ffffffffffffffffffffffffffffffffffffffff16606960009054906101000a900473ffffffffffffffffffffffffffffffffffffffff1673ffffffffffffffffffffffffffffffffffffffff167f8be0079c531659141344cd1fd0a4f28419497f9722a3daafe3b4186f6b6457e060405160405180910390a380606960006101000a81548173ffffffffffffffffffffffffffffffffffffffff021916908373ffffffffffffffffffffffffffffffffffffffff1602179055505056fe45524332303a207472616e7366657220746f20746865207a65726f20616464726573734f776e61626c653a206e6577206f776e657220697320746865207a65726f206164647265737345524332303a20617070726f766520746f20746865207a65726f2061646472657373416464726573733a20756e61626c6520746f2073656e642076616c75652c20726563697069656e74206d61792068617665207265766572746564596f752063616e6e6f7420646f6e61746520536f6369616c546f6b656e7320746f20796f757273656c66536166654d6174683a206d756c7469706c69636174696f6e206f766572666c6f77436f6e747261637420696e7374616e63652068617320616c7265616479206265656e20696e697469616c697a656445524332303a206275726e2066726f6d20746865207a65726f206164647265737345524332303a207472616e736665722066726f6d20746865207a65726f206164647265737345524332303a20617070726f76652066726f6d20746865207a65726f2061646472657373a165627a7a723058203306f25c4ca495792466a6aa4885dfe10ceceea668f5d0d4cc342ac3f515b2b10029",
  "source": "pragma solidity ^0.5.8;\n\nimport \"./ERC20.sol\";\nimport \"./Pausable.sol\";\nimport \"./Initializable.sol\";\nimport \"./Context.sol\";\nimport \"./Address.sol\";\n\n/**\n * @dev Implementation of the Social Token.\n *\n * This ...\n */\ncontract Social is ERC20, Pausable {\n    using SafeMath for uint256;\n\n    uint public tokenPrice;\n    uint public voluntaryGasAdvance;\n    mapping (address=>bool) private vendorMap;\n\n    modifier onlyVendor(address vendor) {\n        require(vendorMap[vendor]==true, \"Caller is not a vendor\");\n        _;\n    }\n\n    function initialize() public initializer {\n        Pausable.initializePausable(_msgSender());\n        vendorMap[0x96c65A2b5Ef50bc13f227A1f3c285e5045a4664B] = true;\n        vendorMap[0x9Ea5cB0a3162a50BF5cdd694451A21B557b1967D] = true;\n        vendorMap[0x30DFf58C12349297fea380A95B59211367dE8e72] = true;\n        tokenPrice = 6 szabo;\n\n        /**\n         * Avg. spent token per purchase = 4000\n         * 4000 Tokens/Purchase --> 160 Gwei/Token\n         * 64715 Gas/SpentTransaction\n         */\n        voluntaryGasAdvance = 200000000000 wei; // == 200 Gwei\n    }\n\n    function buyToken(uint amount) external payable whenNotPaused {\n        require(msg.value >= amount.mul(tokenPrice.add(voluntaryGasAdvance)), \"Not enough funds sent\");\n        // TODO Overflow check\n        // TODO\n        _mint(_msgSender(), amount);\n    }\n\n    function donateToken(uint amount, string calldata receiverAddress) external whenNotPaused notHomeless(_msgSender()) {\n        address parsedAddress = parseAddr(receiverAddress);\n        require(_msgSender() != parsedAddress, \"You cannot donate SocialTokens to yourself\");\n        ERC20.setHomelessMap(parsedAddress);\n        _transfer(_msgSender(), parsedAddress, amount);\n        address payable payableReceiver = address(uint160(parsedAddress));\n        Address.sendValue(payableReceiver, voluntaryGasAdvance.mul(amount));\n    }\n    // TODO must be onlyHomeless in the future, for testing purpose only right\n    function spendToken(uint amount, string calldata receiverAddress) external onlyVendor(parseAddr(receiverAddress)) whenNotPaused {\n        address parsedAddress = parseAddr(receiverAddress);\n        _transfer(_msgSender(), parsedAddress, amount);\n    }\n\n    function withdraw(uint amount) external onlyVendor(_msgSender()) whenNotPaused {\n        require(address(this).balance >= tokenPrice.mul(amount), \"Not enough funds available\");\n        _burn(_msgSender(), amount);\n        address payable payableVendor = address(uint160(_msgSender()));\n        Address.sendValue(payableVendor, tokenPrice.mul(amount));\n    }\n\n    function registerVendor(address vendorAddress) public onlyOwner whenNotPaused {\n        vendorMap[vendorAddress] = true;\n    }\n    function deleteVendor(address vendorAddress) public onlyOwner whenNotPaused {\n        vendorMap[vendorAddress] = false;\n    }\n\n    /**\n     * @dev parse string to adress\n     * @param _a string that will be parsed\n     */\n    function parseAddr(string memory _a) internal pure returns (address _parsedAddress) {\n        bytes memory tmp = bytes(_a);\n        uint160 iaddr = 0;\n        uint160 b1;\n        uint160 b2;\n        for (uint i = 2; i < 2 + 2 * 20; i += 2) {\n            iaddr *= 256;\n            b1 = uint160(uint8(tmp[i]));\n            b2 = uint160(uint8(tmp[i + 1]));\n            if ((b1 >= 97) && (b1 <= 102)) {\n                b1 -= 87;\n            } else if ((b1 >= 65) && (b1 <= 70)) {\n                b1 -= 55;\n            } else if ((b1 >= 48) && (b1 <= 57)) {\n             b1 -= 48;\n           }\n            if ((b2 >= 97) && (b2 <= 102)) {\n                b2 -= 87;\n            } else if ((b2 >= 65) && (b2 <= 70)) {\n                b2 -= 55;\n            } else if ((b2 >= 48) && (b2 <= 57)) {\n             b2 -= 48;\n            }\n            iaddr += (b1 * 16 + b2);\n        }\n        return address(iaddr);\n    }\n\n    function () external {\n\n    }\n}",
  "sourcePath": "/Users/JoRo/LocalProgramming/Repositories/SocialToken/contracts/Social.sol",
  "compiler": {
    "name": "solc",
    "version": "0.5.8+commit.23d335f2.Emscripten.clang"
  },
  "schemaVersion": "3.0.11",
  "updatedAt": "2020-02-24T16:02:03.626Z",
  "devdoc": {
    "details": "Implementation of the Social Token. * This ...",
    "methods": {
      "allowance(address,address)": {
        "details": "See `IERC20.allowance`."
      },
      "approve(address,uint256)": {
        "details": "See `IERC20.approve`.     * Requirements:     * - `spender` cannot be the zero address."
      },
      "balanceOf(address)": {
        "details": "See `IERC20.balanceOf`."
      },
      "decreaseAllowance(address,uint256)": {
        "details": "Atomically decreases the allowance granted to `spender` by the caller.     * This is an alternative to `approve` that can be used as a mitigation for problems described in `IERC20.approve`.     * Emits an `Approval` event indicating the updated allowance.     * Requirements:     * - `spender` cannot be the zero address. - `spender` must have allowance for the caller of at least `subtractedValue`."
      },
      "increaseAllowance(address,uint256)": {
        "details": "Atomically increases the allowance granted to `spender` by the caller.     * This is an alternative to `approve` that can be used as a mitigation for problems described in `IERC20.approve`.     * Emits an `Approval` event indicating the updated allowance.     * Requirements:     * - `spender` cannot be the zero address."
      },
      "initializeOwnable(address)": {
        "details": "Initializes the contract setting the deployer as the initial owner."
      },
      "initializePausable(address)": {
        "details": "Initializes the contract in unpaused state. Assigns the Pauser role to the deployer."
      },
      "isOwner()": {
        "details": "Returns true if the caller is the current owner."
      },
      "owner()": {
        "details": "Returns the address of the current owner."
      },
      "pause()": {
        "details": "Called by a pauser to pause, triggers stopped state."
      },
      "paused()": {
        "details": "Returns true if the contract is paused, and false otherwise."
      },
      "renounceOwnership()": {
        "details": "Leaves the contract without owner. It will not be possible to call `onlyOwner` functions anymore. Can only be called by the current owner.     * > Note: Renouncing ownership will leave the contract without an owner, thereby removing any functionality that is only available to the owner."
      },
      "totalSupply()": {
        "details": "See `IERC20.totalSupply`."
      },
      "transfer(address,uint256)": {
        "details": "See `IERC20.transfer`.     * Requirements:     * - `recipient` cannot be the zero address. - the caller must have a balance of at least `amount`."
      },
      "transferFrom(address,address,uint256)": {
        "details": "See `IERC20.transferFrom`.     * Emits an `Approval` event indicating the updated allowance. This is not required by the EIP. See the note at the beginning of `ERC20`;     * Requirements: - `sender` and `recipient` cannot be the zero address. - `sender` must have a balance of at least `value`. - the caller must have allowance for `sender`'s tokens of at least `amount`."
      },
      "transferOwnership(address)": {
        "details": "Transfers ownership of the contract to a new account (`newOwner`). Can only be called by the current owner."
      },
      "unpause()": {
        "details": "Called by a pauser to unpause, returns to normal state."
      }
    }
  },
  "userdoc": {
    "methods": {}
  }
}